{
  "abi": [
    {
      "type": "function",
      "name": "decrementUserCounter",
      "inputs": [],
      "outputs": [],
      "stateMutability": "nonpayable"
    },
    {
      "type": "function",
      "name": "getUserCounter",
      "inputs": [
        {
          "name": "user",
          "type": "address",
          "internalType": "address"
        }
      ],
      "outputs": [
        {
          "name": "",
          "type": "uint256",
          "internalType": "uint256"
        }
      ],
      "stateMutability": "view"
    },
    {
      "type": "function",
      "name": "incrementUserCounter",
      "inputs": [],
      "outputs": [],
      "stateMutability": "nonpayable"
    },
    {
      "type": "function",
      "name": "setUserCounter",
      "inputs": [
        {
          "name": "newNumber",
          "type": "uint256",
          "internalType": "uint256"
        }
      ],
      "outputs": [],
      "stateMutability": "nonpayable"
    },
    {
      "type": "function",
      "name": "userCounters",
      "inputs": [
        {
          "name": "",
          "type": "address",
          "internalType": "address"
        }
      ],
      "outputs": [
        {
          "name": "",
          "type": "uint256",
          "internalType": "uint256"
        }
      ],
      "stateMutability": "view"
    }
  ],
  "bytecode": {
    "object": "0x6080604052348015600f57600080fd5b506101eb8061001f6000396000f3fe608060405234801561001057600080fd5b50600436106100575760003560e01c806316cb1bc71461005c57806338c6a5c4146100975780634e846033146100b95780638806a32f146100d9578063e0019232146100e1575b600080fd5b61008561006a366004610126565b6001600160a01b031660009081526020819052604090205490565b60405190815260200160405180910390f35b6100b76100a5366004610156565b33600090815260208190526040902055565b005b6100856100c7366004610126565b60006020819052908152604090205481565b6100b76100e9565b6100b761010b565b33600090815260208190526040812080549161010483610185565b9190505550565b3360009081526020819052604081208054916101048361019e565b60006020828403121561013857600080fd5b81356001600160a01b038116811461014f57600080fd5b9392505050565b60006020828403121561016857600080fd5b5035919050565b634e487b7160e01b600052601160045260246000fd5b6000600182016101975761019761016f565b5060010190565b6000816101ad576101ad61016f565b50600019019056fea264697066735822122072cf10bf21d45d92a80bded65045c15853a4555165cca2cc9d4aa2a1183bcdf264736f6c634300081c0033",
    "linkReferences": {}
  },
  "methodIdentifiers": {
    "decrementUserCounter()": "e0019232",
    "getUserCounter(address)": "16cb1bc7",
    "incrementUserCounter()": "8806a32f",
    "setUserCounter(uint256)": "38c6a5c4",
    "userCounters(address)": "4e846033"
  },
  "id": 0
}